{
  "contractName": "PersistentBit",
  "abi": [
    {
      "inputs": [],
      "payable": false,
      "stateMutability": "nonpayable",
      "type": "constructor"
    },
    {
      "anonymous": false,
      "inputs": [
        {
          "indexed": false,
          "name": "shortUrl",
          "type": "string"
        },
        {
          "indexed": false,
          "name": "longUrl",
          "type": "string"
        },
        {
          "indexed": false,
          "name": "ownerAddress",
          "type": "address"
        }
      ],
      "name": "onNewBitly",
      "type": "event"
    },
    {
      "constant": false,
      "inputs": [
        {
          "name": "_shortUrl",
          "type": "string"
        },
        {
          "name": "_longUrl",
          "type": "string"
        }
      ],
      "name": "newUrl",
      "outputs": [],
      "payable": false,
      "stateMutability": "nonpayable",
      "type": "function"
    },
    {
      "constant": true,
      "inputs": [
        {
          "name": "_shortUrl",
          "type": "string"
        }
      ],
      "name": "getUrl",
      "outputs": [
        {
          "name": "_longUrl",
          "type": "string"
        }
      ],
      "payable": false,
      "stateMutability": "view",
      "type": "function"
    }
  ],
  "bytecode": "0x608060405234801561001057600080fd5b50610775806100206000396000f30060806040526004361061004c576000357c0100000000000000000000000000000000000000000000000000000000900463ffffffff16806345e7436914610051578063d53ae81414610133575b600080fd5b34801561005d57600080fd5b506100b8600480360381019080803590602001908201803590602001908080601f01602080910402602001604051908101604052809392919081815260200183838082843782019150505050505091929192905050506101e2565b6040518080602001828103825283818151815260200191508051906020019080838360005b838110156100f85780820151818401526020810190506100dd565b50505050905090810190601f1680156101255780820380516001836020036101000a031916815260200191505b509250505060405180910390f35b34801561013f57600080fd5b506101e0600480360381019080803590602001908201803590602001908080601f0160208091040260200160405190810160405280939291908181526020018383808284378201915050505050509192919290803590602001908201803590602001908080601f01602080910402602001604051908101604052809392919081815260200183838082843782019150505050505091929192905050506102f2565b005b60606000826040518082805190602001908083835b60208310151561021c57805182526020820191506020810190506020830392506101f7565b6001836020036101000a03801982511681845116808217855250505050505090500191505090815260200160405180910390206001018054600181600116156101000203166002900480601f0160208091040260200160405190810160405280929190818152602001828054600181600116156101000203166002900480156102e65780601f106102bb576101008083540402835291602001916102e6565b820191906000526020600020905b8154815290600101906020018083116102c957829003601f168201915b50505050509050919050565b81806040518082805190602001908083835b6020831015156103295780518252602082019150602081019050602083039250610304565b6001836020036101000a0380198251168184511680821785525050505050509050019150506040518091039020600019166000826040518082805190602001908083835b602083101515610392578051825260208201915060208101905060208303925061036d565b6001836020036101000a038019825116818451168082178552505050505050905001915050908152602001604051809103902060000160405180828054600181600116156101000203166002900480156104235780601f10610401576101008083540402835291820191610423565b820191906000526020600020905b81548152906001019060200180831161040f575b50509150506040518091039020600019161415151561044157600080fd5b6060604051908101604052808481526020018381526020013373ffffffffffffffffffffffffffffffffffffffff168152506000846040518082805190602001908083835b6020831015156104ab5780518252602082019150602081019050602083039250610486565b6001836020036101000a038019825116818451168082178552505050505050905001915050908152602001604051809103902060008201518160000190805190602001906104fa9291906106a4565b5060208201518160010190805190602001906105179291906106a4565b5060408201518160020160006101000a81548173ffffffffffffffffffffffffffffffffffffffff021916908373ffffffffffffffffffffffffffffffffffffffff1602179055509050507fa8fa209246764c1e0933867331d63c3531421b7914763911419f1eb8878d4fcc8383336040518080602001806020018473ffffffffffffffffffffffffffffffffffffffff1673ffffffffffffffffffffffffffffffffffffffff168152602001838103835286818151815260200191508051906020019080838360005b838110156105fc5780820151818401526020810190506105e1565b50505050905090810190601f1680156106295780820380516001836020036101000a031916815260200191505b50838103825285818151815260200191508051906020019080838360005b83811015610662578082015181840152602081019050610647565b50505050905090810190601f16801561068f5780820380516001836020036101000a031916815260200191505b509550505050505060405180910390a1505050565b828054600181600116156101000203166002900490600052602060002090601f016020900481019282601f106106e557805160ff1916838001178555610713565b82800160010185558215610713579182015b828111156107125782518255916020019190600101906106f7565b5b5090506107209190610724565b5090565b61074691905b8082111561074257600081600090555060010161072a565b5090565b905600a165627a7a723058202a07c8b9dae33d996f5fcf5cc8ed9e52e1a4bb29806f75d8ca1a8161e621caed0029",
  "source": "pragma solidity ^0.4.17;\n\n\n/*\n* Persistent URL Shortener \n* Lives forever on the Blockchain\n*/\n\ncontract PersistentBit {\n    \n    /*\n    * Struct mapping actual URL to shortened form\n    */\n    \n    struct Shortened_url {\n        string shortUrl; \n        string longUrl;\n        address owner;\n    }\n    \n    mapping (string => Shortened_url) urls;\n    \n    event onNewBitly (\n        string shortUrl,\n        string longUrl,\n        address ownerAddress\n    );\n    \n    /*\n    * ensure that the shortenedUrl has not been used before\n    */\n    \n    modifier notUsed(string url){\n        require(\n            keccak256(urls[url].shortUrl) != keccak256(url)\n        );\n        _;\n    }\n    \n    function PersistentBit() public {\n        \n    }\n    \n    /*\n    * generate new Bit.ly URL\n    */\n    \n    function newUrl(string _shortUrl, string _longUrl) public notUsed(_shortUrl){\n        urls[_shortUrl] = Shortened_url(_shortUrl, _longUrl, msg.sender);\n        emit onNewBitly(_shortUrl, _longUrl, msg.sender);\n    }\n    \n    /*\n    * retrieve the Bitly url\n    */\n    \n    function getUrl(string _shortUrl) constant returns(string _longUrl){\n        return(urls[_shortUrl].longUrl);\n    } \n\n}",
  "sourcePath": "/Users/pongcheecharern/workspace/persistentBitly/contracts/PersistentBit.sol",
  "compiler": {
    "name": "solc",
    "version": "0.4.24+commit.e67f0147.Emscripten.clang"
  },
  "schemaVersion": "2.0.0",
  "updatedAt": "2018-06-11T15:12:24.566Z"
}